{
  "_format": "hh-sol-artifact-1",
  "contractName": "Bet",
  "sourceName": "contracts/Bet.sol",
  "abi": [
    {
      "inputs": [
        {
          "internalType": "address",
          "name": "_tokenAddress",
          "type": "address"
        }
      ],
      "stateMutability": "nonpayable",
      "type": "constructor"
    },
    {
      "anonymous": false,
      "inputs": [
        {
          "indexed": false,
          "internalType": "bytes32",
          "name": "_eventId",
          "type": "bytes32"
        },
        {
          "indexed": false,
          "internalType": "address",
          "name": "_player",
          "type": "address"
        },
        {
          "indexed": false,
          "internalType": "uint8",
          "name": "_chosenWinner",
          "type": "uint8"
        },
        {
          "indexed": false,
          "internalType": "uint256",
          "name": "_amount",
          "type": "uint256"
        }
      ],
      "name": "BetPlaced",
      "type": "event"
    },
    {
      "anonymous": false,
      "inputs": [
        {
          "indexed": false,
          "internalType": "address",
          "name": "_address",
          "type": "address"
        }
      ],
      "name": "OracleAddressSet",
      "type": "event"
    },
    {
      "anonymous": false,
      "inputs": [
        {
          "indexed": true,
          "internalType": "address",
          "name": "previousOwner",
          "type": "address"
        },
        {
          "indexed": true,
          "internalType": "address",
          "name": "newOwner",
          "type": "address"
        }
      ],
      "name": "OwnershipTransferred",
      "type": "event"
    },
    {
      "inputs": [
        {
          "internalType": "address",
          "name": "_spender",
          "type": "address"
        },
        {
          "internalType": "uint256",
          "name": "_amount",
          "type": "uint256"
        }
      ],
      "name": "approve",
      "outputs": [],
      "stateMutability": "nonpayable",
      "type": "function"
    },
    {
      "inputs": [
        {
          "internalType": "address",
          "name": "_sender",
          "type": "address"
        },
        {
          "internalType": "uint256",
          "name": "_amount",
          "type": "uint256"
        }
      ],
      "name": "deposit",
      "outputs": [],
      "stateMutability": "nonpayable",
      "type": "function"
    },
    {
      "inputs": [],
      "name": "getBettableEvents",
      "outputs": [
        {
          "internalType": "bytes32[]",
          "name": "pendingEvents",
          "type": "bytes32[]"
        }
      ],
      "stateMutability": "view",
      "type": "function"
    },
    {
      "inputs": [],
      "name": "getContractDAIBalance",
      "outputs": [
        {
          "internalType": "uint256",
          "name": "",
          "type": "uint256"
        }
      ],
      "stateMutability": "view",
      "type": "function"
    },
    {
      "inputs": [
        {
          "internalType": "bytes32",
          "name": "_eventId",
          "type": "bytes32"
        }
      ],
      "name": "getEvent",
      "outputs": [
        {
          "internalType": "bytes32",
          "name": "id",
          "type": "bytes32"
        },
        {
          "internalType": "string",
          "name": "name",
          "type": "string"
        },
        {
          "internalType": "string",
          "name": "participants",
          "type": "string"
        },
        {
          "internalType": "uint8",
          "name": "participantCount",
          "type": "uint8"
        },
        {
          "internalType": "uint256",
          "name": "date",
          "type": "uint256"
        },
        {
          "internalType": "enum OracleInterface.EventOutcome",
          "name": "outcome",
          "type": "uint8"
        },
        {
          "internalType": "int8",
          "name": "winner",
          "type": "int8"
        }
      ],
      "stateMutability": "view",
      "type": "function"
    },
    {
      "inputs": [],
      "name": "getLatestEvent",
      "outputs": [
        {
          "internalType": "bytes32",
          "name": "id",
          "type": "bytes32"
        },
        {
          "internalType": "string",
          "name": "name",
          "type": "string"
        },
        {
          "internalType": "string",
          "name": "participants",
          "type": "string"
        },
        {
          "internalType": "uint256",
          "name": "participantCount",
          "type": "uint256"
        },
        {
          "internalType": "uint256",
          "name": "date",
          "type": "uint256"
        },
        {
          "internalType": "enum OracleInterface.EventOutcome",
          "name": "outcome",
          "type": "uint8"
        },
        {
          "internalType": "int8",
          "name": "winner",
          "type": "int8"
        }
      ],
      "stateMutability": "view",
      "type": "function"
    },
    {
      "inputs": [],
      "name": "getOracleAddress",
      "outputs": [
        {
          "internalType": "address",
          "name": "",
          "type": "address"
        }
      ],
      "stateMutability": "view",
      "type": "function"
    },
    {
      "inputs": [],
      "name": "owner",
      "outputs": [
        {
          "internalType": "address",
          "name": "",
          "type": "address"
        }
      ],
      "stateMutability": "view",
      "type": "function"
    },
    {
      "inputs": [
        {
          "internalType": "bytes32",
          "name": "_eventId",
          "type": "bytes32"
        },
        {
          "internalType": "uint8",
          "name": "_chosenWinner",
          "type": "uint8"
        }
      ],
      "name": "placeBet",
      "outputs": [],
      "stateMutability": "payable",
      "type": "function"
    },
    {
      "inputs": [],
      "name": "renounceOwnership",
      "outputs": [],
      "stateMutability": "nonpayable",
      "type": "function"
    },
    {
      "inputs": [
        {
          "internalType": "address",
          "name": "_oracleAddress",
          "type": "address"
        }
      ],
      "name": "setOracleAddress",
      "outputs": [
        {
          "internalType": "bool",
          "name": "",
          "type": "bool"
        }
      ],
      "stateMutability": "nonpayable",
      "type": "function"
    },
    {
      "inputs": [],
      "name": "testOracleConnection",
      "outputs": [
        {
          "internalType": "bool",
          "name": "",
          "type": "bool"
        }
      ],
      "stateMutability": "view",
      "type": "function"
    },
    {
      "inputs": [
        {
          "internalType": "address",
          "name": "newOwner",
          "type": "address"
        }
      ],
      "name": "transferOwnership",
      "outputs": [],
      "stateMutability": "nonpayable",
      "type": "function"
    },
    {
      "stateMutability": "payable",
      "type": "receive"
    }
  ],
  "bytecode": "0x60806040526000600560006101000a81548173ffffffffffffffffffffffffffffffffffffffff021916908373ffffffffffffffffffffffffffffffffffffffff160217905550600560009054906101000a900473ffffffffffffffffffffffffffffffffffffffff16600660006101000a81548173ffffffffffffffffffffffffffffffffffffffff021916908373ffffffffffffffffffffffffffffffffffffffff16021790555067016345785d8a0000600755348015620000c257600080fd5b50604051620025a9380380620025a98339818101604052810190620000e89190620002af565b62000108620000fc620001cc60201b60201c565b620001d460201b60201c565b6001808190555080600073ffffffffffffffffffffffffffffffffffffffff168173ffffffffffffffffffffffffffffffffffffffff16141562000183576040517f08c379a00000000000000000000000000000000000000000000000000000000081526004016200017a9062000302565b60405180910390fd5b81600260006101000a81548173ffffffffffffffffffffffffffffffffffffffff021916908373ffffffffffffffffffffffffffffffffffffffff1602179055505050620003ac565b600033905090565b60008060009054906101000a900473ffffffffffffffffffffffffffffffffffffffff169050816000806101000a81548173ffffffffffffffffffffffffffffffffffffffff021916908373ffffffffffffffffffffffffffffffffffffffff1602179055508173ffffffffffffffffffffffffffffffffffffffff168173ffffffffffffffffffffffffffffffffffffffff167f8be0079c531659141344cd1fd0a4f28419497f9722a3daafe3b4186f6b6457e060405160405180910390a35050565b600081519050620002a98162000392565b92915050565b600060208284031215620002c257600080fd5b6000620002d28482850162000298565b91505092915050565b6000620002ea60188362000324565b9150620002f78262000369565b602082019050919050565b600060208201905081810360008301526200031d81620002db565b9050919050565b600082825260208201905092915050565b6000620003428262000349565b9050919050565b600073ffffffffffffffffffffffffffffffffffffffff82169050919050565b7f416464726573732030206973206e6f7420616c6c6f7765640000000000000000600082015250565b6200039d8162000335565b8114620003a957600080fd5b50565b6121ed80620003bc6000396000f3fe6080604052600436106100c65760003560e01c806379ff47771161007f5780639a74c81f116100595780639a74c81f1461025e5780639be2395d14610289578063b18b78dd146102b4578063f2fde38b146102df576100cd565b806379ff4777146101bf5780638c172fa2146101f05780638da5cb5b14610233576100cd565b8063095ea7b3146100d25780630e52bb49146100fb5780632ce3707e1461011757806347e7ef24146101425780634c69c00f1461016b578063715018a6146101a8576100cd565b366100cd57005b600080fd5b3480156100de57600080fd5b506100f960048036038101906100f49190611560565b610308565b005b610115600480360381019061011091906116fd565b61042e565b005b34801561012357600080fd5b5061012c6108a4565b6040516101399190611a61565b60405180910390f35b34801561014e57600080fd5b5061016960048036038101906101649190611560565b6109a5565b005b34801561017757600080fd5b50610192600480360381019061018d9190611537565b610b11565b60405161019f9190611a61565b60405180910390f35b3480156101b457600080fd5b506101bd610da5565b005b3480156101cb57600080fd5b506101d4610e2d565b6040516101e79796959493929190611adc565b60405180910390f35b3480156101fc57600080fd5b5061021760048036038101906102129190611606565b610f06565b60405161022a9796959493929190611b59565b60405180910390f35b34801561023f57600080fd5b50610248610fda565b60405161025591906119c4565b60405180910390f35b34801561026a57600080fd5b50610273611003565b6040516102809190611cf6565b60405180910390f35b34801561029557600080fd5b5061029e6110b5565b6040516102ab9190611a3f565b60405180910390f35b3480156102c057600080fd5b506102c9611161565b6040516102d691906119c4565b60405180910390f35b3480156102eb57600080fd5b5061030660048036038101906103019190611537565b61118b565b005b81600073ffffffffffffffffffffffffffffffffffffffff168173ffffffffffffffffffffffffffffffffffffffff161415610379576040517f08c379a000000000000000000000000000000000000000000000000000000000815260040161037090611c96565b60405180910390fd5b600260009054906101000a900473ffffffffffffffffffffffffffffffffffffffff1673ffffffffffffffffffffffffffffffffffffffff1663095ea7b384846040518363ffffffff1660e01b81526004016103d6929190611a16565b602060405180830381600087803b1580156103f057600080fd5b505af1158015610404573d6000803e3d6000fd5b505050506040513d601f19601f8201168201806040525081019061042891906115dd565b50505050565b33600073ffffffffffffffffffffffffffffffffffffffff168173ffffffffffffffffffffffffffffffffffffffff16141561049f576040517f08c379a000000000000000000000000000000000000000000000000000000000815260040161049690611c96565b60405180910390fd5b600260015414156104e5576040517f08c379a00000000000000000000000000000000000000000000000000000000081526004016104dc90611cd6565b60405180910390fd5b6002600181905550600754341015610532576040517f08c379a000000000000000000000000000000000000000000000000000000000815260040161052990611c76565b60405180910390fd5b600660009054906101000a900473ffffffffffffffffffffffffffffffffffffffff1673ffffffffffffffffffffffffffffffffffffffff1663118e58bd846040518263ffffffff1660e01b815260040161058d9190611a7c565b60206040518083038186803b1580156105a557600080fd5b505afa1580156105b9573d6000803e3d6000fd5b505050506040513d601f19601f820116820180604052508101906105dd91906115dd565b61061c576040517f08c379a000000000000000000000000000000000000000000000000000000000815260040161061390611c16565b60405180910390fd5b610627338484611283565b610666576040517f08c379a000000000000000000000000000000000000000000000000000000000815260040161065d90611c56565b60405180910390fd5b61066f83611290565b6106ae576040517f08c379a00000000000000000000000000000000000000000000000000000000081526004016106a590611c36565b60405180910390fd5b3073ffffffffffffffffffffffffffffffffffffffff166108fc349081150290604051600060405180830381858888f193505050501580156106f4573d6000803e3d6000fd5b5060006004600085815260200190815260200160002090508060405180608001604052803373ffffffffffffffffffffffffffffffffffffffff1681526020018681526020013481526020018560ff16815250908060018154018082558091505060019003906000526020600020906004020160009091909190915060008201518160000160006101000a81548173ffffffffffffffffffffffffffffffffffffffff021916908373ffffffffffffffffffffffffffffffffffffffff160217905550602082015181600101556040820151816002015560608201518160030160006101000a81548160ff021916908360ff16021790555050506000600360003373ffffffffffffffffffffffffffffffffffffffff1673ffffffffffffffffffffffffffffffffffffffff1681526020019081526020016000209050808590806001815401808255809150506001900390600052602060002001600090919091909150557f22f4c9bb73a93d9507392476fa412371d3d5e19e74d8951567b76a7483dca1a08533863460405161088e9493929190611a97565b60405180910390a1505060018081905550505050565b60008073ffffffffffffffffffffffffffffffffffffffff16600560009054906101000a900473ffffffffffffffffffffffffffffffffffffffff1673ffffffffffffffffffffffffffffffffffffffff16141580156109a05750600660009054906101000a900473ffffffffffffffffffffffffffffffffffffffff1673ffffffffffffffffffffffffffffffffffffffff16633412a15c6040518163ffffffff1660e01b815260040160206040518083038186803b15801561096757600080fd5b505afa15801561097b573d6000803e3d6000fd5b505050506040513d601f19601f8201168201806040525081019061099f91906115dd565b5b905090565b81600073ffffffffffffffffffffffffffffffffffffffff168173ffffffffffffffffffffffffffffffffffffffff161415610a16576040517f08c379a0000000000000000000000000000000000000000000000000000000008152600401610a0d90611c96565b60405180910390fd5b600a821015610a5a576040517f08c379a0000000000000000000000000000000000000000000000000000000008152600401610a5190611bd6565b60405180910390fd5b600260009054906101000a900473ffffffffffffffffffffffffffffffffffffffff1673ffffffffffffffffffffffffffffffffffffffff166323b872dd8430856040518463ffffffff1660e01b8152600401610ab9939291906119df565b602060405180830381600087803b158015610ad357600080fd5b505af1158015610ae7573d6000803e3d6000fd5b505050506040513d601f19601f82011682018060405250810190610b0b91906115dd565b50505050565b6000610b1b61129b565b73ffffffffffffffffffffffffffffffffffffffff16610b39610fda565b73ffffffffffffffffffffffffffffffffffffffff1614610b8f576040517f08c379a0000000000000000000000000000000000000000000000000000000008152600401610b8690611cb6565b60405180910390fd5b81600073ffffffffffffffffffffffffffffffffffffffff168173ffffffffffffffffffffffffffffffffffffffff161415610c00576040517f08c379a0000000000000000000000000000000000000000000000000000000008152600401610bf790611c96565b60405180910390fd5b82600560006101000a81548173ffffffffffffffffffffffffffffffffffffffff021916908373ffffffffffffffffffffffffffffffffffffffff160217905550600560009054906101000a900473ffffffffffffffffffffffffffffffffffffffff16600660006101000a81548173ffffffffffffffffffffffffffffffffffffffff021916908373ffffffffffffffffffffffffffffffffffffffff1602179055507fdd82bdfc28fcc826c53263dc2a2b6083e27e92699ebfee617227e08e21c202f0600560009054906101000a900473ffffffffffffffffffffffffffffffffffffffff16604051610cf591906119c4565b60405180910390a1600660009054906101000a900473ffffffffffffffffffffffffffffffffffffffff1673ffffffffffffffffffffffffffffffffffffffff16633412a15c6040518163ffffffff1660e01b815260040160206040518083038186803b158015610d6557600080fd5b505afa158015610d79573d6000803e3d6000fd5b505050506040513d601f19601f82011682018060405250810190610d9d91906115dd565b915050919050565b610dad61129b565b73ffffffffffffffffffffffffffffffffffffffff16610dcb610fda565b73ffffffffffffffffffffffffffffffffffffffff1614610e21576040517f08c379a0000000000000000000000000000000000000000000000000000000008152600401610e1890611cb6565b60405180910390fd5b610e2b60006112a3565b565b6000606080600080600080600660009054906101000a900473ffffffffffffffffffffffffffffffffffffffff1673ffffffffffffffffffffffffffffffffffffffff166329e5426960016040518263ffffffff1660e01b8152600401610e949190611a61565b60006040518083038186803b158015610eac57600080fd5b505afa158015610ec0573d6000803e3d6000fd5b505050506040513d6000823e3d601f19601f82011682018060405250810190610ee9919061162f565b8360ff169350965096509650965096509650965090919293949596565b6000606080600080600080600660009054906101000a900473ffffffffffffffffffffffffffffffffffffffff1673ffffffffffffffffffffffffffffffffffffffff16638c172fa2896040518263ffffffff1660e01b8152600401610f6c9190611a7c565b60006040518083038186803b158015610f8457600080fd5b505afa158015610f98573d6000803e3d6000fd5b505050506040513d6000823e3d601f19601f82011682018060405250810190610fc1919061162f565b9650965096509650965096509650919395979092949650565b60008060009054906101000a900473ffffffffffffffffffffffffffffffffffffffff16905090565b6000600260009054906101000a900473ffffffffffffffffffffffffffffffffffffffff1673ffffffffffffffffffffffffffffffffffffffff166370a08231306040518263ffffffff1660e01b815260040161106091906119c4565b60206040518083038186803b15801561107857600080fd5b505afa15801561108c573d6000803e3d6000fd5b505050506040513d601f19601f820116820180604052508101906110b09190611739565b905090565b6060600660009054906101000a900473ffffffffffffffffffffffffffffffffffffffff1673ffffffffffffffffffffffffffffffffffffffff1663b4184e706040518163ffffffff1660e01b815260040160006040518083038186803b15801561111f57600080fd5b505afa158015611133573d6000803e3d6000fd5b505050506040513d6000823e3d601f19601f8201168201806040525081019061115c919061159c565b905090565b6000600560009054906101000a900473ffffffffffffffffffffffffffffffffffffffff16905090565b61119361129b565b73ffffffffffffffffffffffffffffffffffffffff166111b1610fda565b73ffffffffffffffffffffffffffffffffffffffff1614611207576040517f08c379a00000000000000000000000000000000000000000000000000000000081526004016111fe90611cb6565b60405180910390fd5b600073ffffffffffffffffffffffffffffffffffffffff168173ffffffffffffffffffffffffffffffffffffffff161415611277576040517f08c379a000000000000000000000000000000000000000000000000000000000815260040161126e90611bf6565b60405180910390fd5b611280816112a3565b50565b6000600190509392505050565b600060019050919050565b600033905090565b60008060009054906101000a900473ffffffffffffffffffffffffffffffffffffffff169050816000806101000a81548173ffffffffffffffffffffffffffffffffffffffff021916908373ffffffffffffffffffffffffffffffffffffffff1602179055508173ffffffffffffffffffffffffffffffffffffffff168173ffffffffffffffffffffffffffffffffffffffff167f8be0079c531659141344cd1fd0a4f28419497f9722a3daafe3b4186f6b6457e060405160405180910390a35050565b600061137a61137584611d36565b611d11565b9050808382526020820190508285602086028201111561139957600080fd5b60005b858110156113c957816113af888261147a565b84526020840193506020830192505060018101905061139c565b5050509392505050565b60006113e66113e184611d62565b611d11565b9050828152602081018484840111156113fe57600080fd5b611409848285611e79565b509392505050565b6000813590506114208161211d565b92915050565b600082601f83011261143757600080fd5b8151611447848260208601611367565b91505092915050565b60008151905061145f81612134565b92915050565b6000813590506114748161214b565b92915050565b6000815190506114898161214b565b92915050565b60008151905061149e81612162565b92915050565b6000815190506114b381612172565b92915050565b600082601f8301126114ca57600080fd5b81516114da8482602086016113d3565b91505092915050565b6000813590506114f281612189565b92915050565b60008151905061150781612189565b92915050565b60008135905061151c816121a0565b92915050565b600081519050611531816121a0565b92915050565b60006020828403121561154957600080fd5b600061155784828501611411565b91505092915050565b6000806040838503121561157357600080fd5b600061158185828601611411565b9250506020611592858286016114e3565b9150509250929050565b6000602082840312156115ae57600080fd5b600082015167ffffffffffffffff8111156115c857600080fd5b6115d484828501611426565b91505092915050565b6000602082840312156115ef57600080fd5b60006115fd84828501611450565b91505092915050565b60006020828403121561161857600080fd5b600061162684828501611465565b91505092915050565b600080600080600080600060e0888a03121561164a57600080fd5b60006116588a828b0161147a565b975050602088015167ffffffffffffffff81111561167557600080fd5b6116818a828b016114b9565b965050604088015167ffffffffffffffff81111561169e57600080fd5b6116aa8a828b016114b9565b95505060606116bb8a828b01611522565b94505060806116cc8a828b016114f8565b93505060a06116dd8a828b0161148f565b92505060c06116ee8a828b016114a4565b91505092959891949750929550565b6000806040838503121561171057600080fd5b600061171e85828601611465565b925050602061172f8582860161150d565b9150509250929050565b60006020828403121561174b57600080fd5b6000611759848285016114f8565b91505092915050565b600061176e83836117f6565b60208301905092915050565b61178381611de8565b82525050565b600061179482611da3565b61179e8185611dc6565b93506117a983611d93565b8060005b838110156117da5781516117c18882611762565b97506117cc83611db9565b9250506001810190506117ad565b5085935050505092915050565b6117f081611dfa565b82525050565b6117ff81611e06565b82525050565b61180e81611e06565b82525050565b61181d81611e67565b82525050565b61182c81611e23565b82525050565b600061183d82611dae565b6118478185611dd7565b9350611857818560208601611e79565b61186081611f3b565b840191505092915050565b6000611878601e83611dd7565b915061188382611f4c565b602082019050919050565b600061189b602683611dd7565b91506118a682611f75565b604082019050919050565b60006118be601983611dd7565b91506118c982611fc4565b602082019050919050565b60006118e1601a83611dd7565b91506118ec82611fed565b602082019050919050565b6000611904601083611dd7565b915061190f82612016565b602082019050919050565b6000611927602183611dd7565b91506119328261203f565b604082019050919050565b600061194a601883611dd7565b91506119558261208e565b602082019050919050565b600061196d602083611dd7565b9150611978826120b7565b602082019050919050565b6000611990601f83611dd7565b915061199b826120e0565b602082019050919050565b6119af81611e50565b82525050565b6119be81611e5a565b82525050565b60006020820190506119d9600083018461177a565b92915050565b60006060820190506119f4600083018661177a565b611a01602083018561177a565b611a0e60408301846119a6565b949350505050565b6000604082019050611a2b600083018561177a565b611a3860208301846119a6565b9392505050565b60006020820190508181036000830152611a598184611789565b905092915050565b6000602082019050611a7660008301846117e7565b92915050565b6000602082019050611a916000830184611805565b92915050565b6000608082019050611aac6000830187611805565b611ab9602083018661177a565b611ac660408301856119b5565b611ad360608301846119a6565b95945050505050565b600060e082019050611af1600083018a611805565b8181036020830152611b038189611832565b90508181036040830152611b178188611832565b9050611b2660608301876119a6565b611b3360808301866119a6565b611b4060a0830185611814565b611b4d60c0830184611823565b98975050505050505050565b600060e082019050611b6e600083018a611805565b8181036020830152611b808189611832565b90508181036040830152611b948188611832565b9050611ba360608301876119b5565b611bb060808301866119a6565b611bbd60a0830185611814565b611bca60c0830184611823565b98975050505050505050565b60006020820190508181036000830152611bef8161186b565b9050919050565b60006020820190508181036000830152611c0f8161188e565b9050919050565b60006020820190508181036000830152611c2f816118b1565b9050919050565b60006020820190508181036000830152611c4f816118d4565b9050919050565b60006020820190508181036000830152611c6f816118f7565b9050919050565b60006020820190508181036000830152611c8f8161191a565b9050919050565b60006020820190508181036000830152611caf8161193d565b9050919050565b60006020820190508181036000830152611ccf81611960565b9050919050565b60006020820190508181036000830152611cef81611983565b9050919050565b6000602082019050611d0b60008301846119a6565b92915050565b6000611d1b611d2c565b9050611d278282611eac565b919050565b6000604051905090565b600067ffffffffffffffff821115611d5157611d50611f0c565b5b602082029050602081019050919050565b600067ffffffffffffffff821115611d7d57611d7c611f0c565b5b611d8682611f3b565b9050602081019050919050565b6000819050602082019050919050565b600081519050919050565b600081519050919050565b6000602082019050919050565b600082825260208201905092915050565b600082825260208201905092915050565b6000611df382611e30565b9050919050565b60008115159050919050565b6000819050919050565b6000819050611e1e82612109565b919050565b60008160000b9050919050565b600073ffffffffffffffffffffffffffffffffffffffff82169050919050565b6000819050919050565b600060ff82169050919050565b6000611e7282611e10565b9050919050565b60005b83811015611e97578082015181840152602081019050611e7c565b83811115611ea6576000848401525b50505050565b611eb582611f3b565b810181811067ffffffffffffffff82111715611ed457611ed3611f0c565b5b80604052505050565b7f4e487b7100000000000000000000000000000000000000000000000000000000600052602160045260246000fd5b7f4e487b7100000000000000000000000000000000000000000000000000000000600052604160045260246000fd5b6000601f19601f8301169050919050565b7f416d6f756e74206465706f7369746564206d757374206265203e3d2031300000600082015250565b7f4f776e61626c653a206e6577206f776e657220697320746865207a65726f206160008201527f6464726573730000000000000000000000000000000000000000000000000000602082015250565b7f537065636966696564206576656e74206e6f7420666f756e6400000000000000600082015250565b7f4576656e74206e6f74206f70656e20666f722062657474696e67000000000000600082015250565b7f426574206973206e6f742076616c696400000000000000000000000000000000600082015250565b7f42657420616d6f756e74206d757374206265203e3d206d696e696d756d20626560008201527f7400000000000000000000000000000000000000000000000000000000000000602082015250565b7f416464726573732030206973206e6f7420616c6c6f7765640000000000000000600082015250565b7f4f776e61626c653a2063616c6c6572206973206e6f7420746865206f776e6572600082015250565b7f5265656e7472616e637947756172643a207265656e7472616e742063616c6c00600082015250565b6004811061211a57612119611edd565b5b50565b61212681611de8565b811461213157600080fd5b50565b61213d81611dfa565b811461214857600080fd5b50565b61215481611e06565b811461215f57600080fd5b50565b6004811061216f57600080fd5b50565b61217b81611e23565b811461218657600080fd5b50565b61219281611e50565b811461219d57600080fd5b50565b6121a981611e5a565b81146121b457600080fd5b5056fea264697066735822122009d789ddbf272b134dd1c22381530a99a38c365f23a8e112e475f34e644e9bcc64736f6c63430008040033",
  "linkReferences": {},
  "deployedLinkReferences": {}
}