{
  "address": "0x9fE46736679d2D9a65F0992F2272dE9f3c7fa6e0",
  "abi": [
    {
      "anonymous": false,
      "inputs": [
        {
          "indexed": true,
          "internalType": "address",
          "name": "previousOwner",
          "type": "address"
        },
        {
          "indexed": true,
          "internalType": "address",
          "name": "newOwner",
          "type": "address"
        }
      ],
      "name": "OwnershipTransferred",
      "type": "event"
    },
    {
      "anonymous": false,
      "inputs": [
        {
          "indexed": false,
          "internalType": "bytes32",
          "name": "_eventId",
          "type": "bytes32"
        },
        {
          "indexed": false,
          "internalType": "string",
          "name": "_name",
          "type": "string"
        },
        {
          "indexed": false,
          "internalType": "string",
          "name": "_participants",
          "type": "string"
        },
        {
          "indexed": false,
          "internalType": "uint8",
          "name": "_participantCount",
          "type": "uint8"
        },
        {
          "indexed": false,
          "internalType": "uint256",
          "name": "_date",
          "type": "uint256"
        },
        {
          "indexed": false,
          "internalType": "enum OracleInterface.SportKind",
          "name": "_kind",
          "type": "uint8"
        },
        {
          "indexed": false,
          "internalType": "enum OracleInterface.EventOutcome",
          "name": "_eventOutcome",
          "type": "uint8"
        },
        {
          "indexed": false,
          "internalType": "int8",
          "name": "_winner",
          "type": "int8"
        }
      ],
      "name": "SportEventAdded",
      "type": "event"
    },
    {
      "inputs": [
        {
          "internalType": "string",
          "name": "_name",
          "type": "string"
        },
        {
          "internalType": "string",
          "name": "_participants",
          "type": "string"
        },
        {
          "internalType": "uint8",
          "name": "_participantCount",
          "type": "uint8"
        },
        {
          "internalType": "uint256",
          "name": "_date",
          "type": "uint256"
        },
        {
          "internalType": "enum OracleInterface.SportKind",
          "name": "_kind",
          "type": "uint8"
        }
      ],
      "name": "addSportEvent",
      "outputs": [
        {
          "internalType": "bytes32",
          "name": "",
          "type": "bytes32"
        }
      ],
      "stateMutability": "nonpayable",
      "type": "function"
    },
    {
      "inputs": [
        {
          "internalType": "bytes32",
          "name": "_eventId",
          "type": "bytes32"
        },
        {
          "internalType": "enum OracleInterface.EventOutcome",
          "name": "_outcome",
          "type": "uint8"
        },
        {
          "internalType": "int8",
          "name": "_winner",
          "type": "int8"
        }
      ],
      "name": "declareOutcome",
      "outputs": [],
      "stateMutability": "nonpayable",
      "type": "function"
    },
    {
      "inputs": [
        {
          "internalType": "bytes32",
          "name": "_eventId",
          "type": "bytes32"
        }
      ],
      "name": "eventExists",
      "outputs": [
        {
          "internalType": "bool",
          "name": "",
          "type": "bool"
        }
      ],
      "stateMutability": "view",
      "type": "function"
    },
    {
      "inputs": [],
      "name": "getAddress",
      "outputs": [
        {
          "internalType": "address",
          "name": "",
          "type": "address"
        }
      ],
      "stateMutability": "view",
      "type": "function"
    },
    {
      "inputs": [],
      "name": "getAllSportEvents",
      "outputs": [
        {
          "internalType": "bytes32[]",
          "name": "",
          "type": "bytes32[]"
        }
      ],
      "stateMutability": "view",
      "type": "function"
    },
    {
      "inputs": [
        {
          "internalType": "bytes32",
          "name": "_eventId",
          "type": "bytes32"
        }
      ],
      "name": "getEvent",
      "outputs": [
        {
          "internalType": "bytes32",
          "name": "id",
          "type": "bytes32"
        },
        {
          "internalType": "string",
          "name": "name",
          "type": "string"
        },
        {
          "internalType": "string",
          "name": "participants",
          "type": "string"
        },
        {
          "internalType": "uint8",
          "name": "participantCount",
          "type": "uint8"
        },
        {
          "internalType": "uint256",
          "name": "date",
          "type": "uint256"
        },
        {
          "internalType": "enum OracleInterface.SportKind",
          "name": "kind",
          "type": "uint8"
        },
        {
          "internalType": "enum OracleInterface.EventOutcome",
          "name": "outcome",
          "type": "uint8"
        },
        {
          "internalType": "int8",
          "name": "winner",
          "type": "int8"
        }
      ],
      "stateMutability": "view",
      "type": "function"
    },
    {
      "inputs": [
        {
          "internalType": "bool",
          "name": "_pending",
          "type": "bool"
        }
      ],
      "name": "getLatestEvent",
      "outputs": [
        {
          "internalType": "bytes32",
          "name": "id",
          "type": "bytes32"
        },
        {
          "internalType": "string",
          "name": "name",
          "type": "string"
        },
        {
          "internalType": "string",
          "name": "participants",
          "type": "string"
        },
        {
          "internalType": "uint8",
          "name": "participantCount",
          "type": "uint8"
        },
        {
          "internalType": "uint256",
          "name": "date",
          "type": "uint256"
        },
        {
          "internalType": "enum OracleInterface.SportKind",
          "name": "kind",
          "type": "uint8"
        },
        {
          "internalType": "enum OracleInterface.EventOutcome",
          "name": "outcome",
          "type": "uint8"
        },
        {
          "internalType": "int8",
          "name": "winner",
          "type": "int8"
        }
      ],
      "stateMutability": "view",
      "type": "function"
    },
    {
      "inputs": [],
      "name": "getPendingEvents",
      "outputs": [
        {
          "internalType": "bytes32[]",
          "name": "",
          "type": "bytes32[]"
        }
      ],
      "stateMutability": "view",
      "type": "function"
    },
    {
      "inputs": [],
      "name": "owner",
      "outputs": [
        {
          "internalType": "address",
          "name": "",
          "type": "address"
        }
      ],
      "stateMutability": "view",
      "type": "function"
    },
    {
      "inputs": [],
      "name": "renounceOwnership",
      "outputs": [],
      "stateMutability": "nonpayable",
      "type": "function"
    },
    {
      "inputs": [],
      "name": "testConnection",
      "outputs": [
        {
          "internalType": "bool",
          "name": "",
          "type": "bool"
        }
      ],
      "stateMutability": "pure",
      "type": "function"
    },
    {
      "inputs": [
        {
          "internalType": "address",
          "name": "newOwner",
          "type": "address"
        }
      ],
      "name": "transferOwnership",
      "outputs": [],
      "stateMutability": "nonpayable",
      "type": "function"
    }
  ],
  "transactionHash": "0x9bf64a7cad98f85c05eeb865cea9c23f1b5a821d3e3a961f10ffd879dfd779a8",
  "args": [],
  "solcInputHash": "8ead67d6f92329989f6206d583d71ba1",
  "bytecode": "0x608060405234801561001057600080fd5b5061002d61002261003960201b60201c565b61004160201b60201c565b60018081905550610105565b600033905090565b60008060009054906101000a900473ffffffffffffffffffffffffffffffffffffffff169050816000806101000a81548173ffffffffffffffffffffffffffffffffffffffff021916908373ffffffffffffffffffffffffffffffffffffffff1602179055508173ffffffffffffffffffffffffffffffffffffffff168173ffffffffffffffffffffffffffffffffffffffff167f8be0079c531659141344cd1fd0a4f28419497f9722a3daafe3b4186f6b6457e060405160405180910390a35050565b6123eb80620001156000396000f3fe608060405234801561001057600080fd5b50600436106100b45760003560e01c80638c172fa2116100715780638c172fa2146101825780638da5cb5b146101b9578063a717e89a146101d7578063b4184e70146101f5578063ef5286bf14610213578063f2fde38b14610243576100b4565b8063118e58bd146100b957806329e54269146100e95780633412a15c1461012057806338cc48311461013e578063715018a61461015c5780637898d33414610166575b600080fd5b6100d360048036038101906100ce91906117b3565b61025f565b6040516100e09190611be6565b60405180910390f35b61010360048036038101906100fe919061178a565b61029c565b604051610117989796959493929190611c1c565b60405180910390f35b610128610347565b6040516101359190611be6565b60405180910390f35b610146610350565b6040516101539190611ba9565b60405180910390f35b610164610358565b005b610180600480360381019061017b91906117dc565b6103e0565b005b61019c600480360381019061019791906117b3565b610665565b6040516101b0989796959493929190611c1c565b60405180910390f35b6101c16108ca565b6040516101ce9190611ba9565b60405180910390f35b6101df6108f3565b6040516101ec9190611bc4565b60405180910390f35b6101fd610a5a565b60405161020a9190611bc4565b60405180910390f35b61022d6004803603810190610228919061182b565b610d9d565b60405161023a9190611c01565b60405180910390f35b61025d60048036038101906102589190611761565b6112fc565b005b60008060028054905014156102775760009050610297565b600060036000848152602001908152602001600020549050600081119150505b919050565b60006060806000806000806000806000801b905060608a156102c7576102c0610a5a565b90506102d2565b6102cf6108f3565b90505b6000815111156103215780600081518110610316577f4e487b7100000000000000000000000000000000000000000000000000000000600052603260045260246000fd5b602002602001015191505b61032a82610665565b995099509950995099509950995099505050919395975091939597565b60006001905090565b600030905090565b6103606113f4565b73ffffffffffffffffffffffffffffffffffffffff1661037e6108ca565b73ffffffffffffffffffffffffffffffffffffffff16146103d4576040517f08c379a00000000000000000000000000000000000000000000000000000000081526004016103cb90611da4565b60405180910390fd5b6103de60006113fc565b565b6103e86113f4565b73ffffffffffffffffffffffffffffffffffffffff166104066108ca565b73ffffffffffffffffffffffffffffffffffffffff161461045c576040517f08c379a000000000000000000000000000000000000000000000000000000000815260040161045390611da4565b60405180910390fd5b6104658361025f565b61046e57600080fd5b6000610479846114c0565b90506000600282815481106104b7577f4e487b7100000000000000000000000000000000000000000000000000000000600052603260045260246000fd5b90600052602060002090600602019050600380811115610500577f4e487b7100000000000000000000000000000000000000000000000000000000600052602160045260246000fd5b846003811115610539577f4e487b7100000000000000000000000000000000000000000000000000000000600052602160045260246000fd5b14156105735760008360000b1215801561056957508260ff168160030160009054906101000a900460ff1660ff16115b61057257600080fd5b5b838160050160016101000a81548160ff021916908360038111156105c0577f4e487b7100000000000000000000000000000000000000000000000000000000600052602160045260246000fd5b02179055506003808111156105fe577f4e487b7100000000000000000000000000000000000000000000000000000000600052602160045260246000fd5b846003811115610637577f4e487b7100000000000000000000000000000000000000000000000000000000600052602160045260246000fd5b141561065e57828160050160026101000a81548160ff021916908360000b60ff1602179055505b5050505050565b6000606080600080600080600061067b8961025f565b1561085c576000600261068d8b6114c0565b815481106106c4577f4e487b7100000000000000000000000000000000000000000000000000000000600052603260045260246000fd5b90600052602060002090600602019050806000015481600101826002018360030160009054906101000a900460ff1684600401548560050160009054906101000a900460ff168660050160019054906101000a900460ff168760050160029054906101000a900460000b86805461073a9061206e565b80601f01602080910402602001604051908101604052809291908181526020018280546107669061206e565b80156107b35780601f10610788576101008083540402835291602001916107b3565b820191906000526020600020905b81548152906001019060200180831161079657829003601f168201915b505050505096508580546107c69061206e565b80601f01602080910402602001604051908101604052809291908181526020018280546107f29061206e565b801561083f5780601f106108145761010080835404028352916020019161083f565b820191906000526020600020905b81548152906001019060200180831161082257829003601f168201915b5050505050955098509850985098509850985098509850506108bf565b886000806000807fffffffffffffffffffffffffffffffffffffffffffffffffffffffffffffffff604051806020016040528060008152509493929190604051806020016040528060008152509493929190975097509750975097509750975097505b919395975091939597565b60008060009054906101000a900473ffffffffffffffffffffffffffffffffffffffff16905090565b6060600060028054905067ffffffffffffffff81111561093c577f4e487b7100000000000000000000000000000000000000000000000000000000600052604160045260246000fd5b60405190808252806020026020018201604052801561096a5781602001602082028036833780820191505090505b50905060006002805490501115610a535760008060028054905090505b6000811115610a5057600260018261099f9190611f30565b815481106109d6577f4e487b7100000000000000000000000000000000000000000000000000000000600052603260045260246000fd5b906000526020600020906006020160000154836001846109f69190611eda565b93508381518110610a30577f4e487b7100000000000000000000000000000000000000000000000000000000600052603260045260246000fd5b602002602001018181525050600181610a499190611f30565b9050610987565b50505b8091505090565b60606000805b600280549050811015610b625760006003811115610aa7577f4e487b7100000000000000000000000000000000000000000000000000000000600052602160045260246000fd5b60028281548110610ae1577f4e487b7100000000000000000000000000000000000000000000000000000000600052603260045260246000fd5b906000526020600020906006020160050160019054906101000a900460ff166003811115610b38577f4e487b7100000000000000000000000000000000000000000000000000000000600052602160045260246000fd5b1415610b4e57600182610b4b9190611eda565b91505b600181610b5b9190611eda565b9050610a60565b5060008167ffffffffffffffff811115610ba5577f4e487b7100000000000000000000000000000000000000000000000000000000600052604160045260246000fd5b604051908082528060200260200182016040528015610bd35781602001602082028036833780820191505090505b5090506000821115610d955760008060028054905090505b6000811115610d925760006003811115610c2e577f4e487b7100000000000000000000000000000000000000000000000000000000600052602160045260246000fd5b6002600183610c3d9190611f30565b81548110610c74577f4e487b7100000000000000000000000000000000000000000000000000000000600052603260045260246000fd5b906000526020600020906006020160050160019054906101000a900460ff166003811115610ccb577f4e487b7100000000000000000000000000000000000000000000000000000000600052602160045260246000fd5b1415610d7e576002600182610ce09190611f30565b81548110610d17577f4e487b7100000000000000000000000000000000000000000000000000000000600052603260045260246000fd5b906000526020600020906006020160000154838381518110610d62577f4e487b7100000000000000000000000000000000000000000000000000000000600052603260045260246000fd5b602002602001018181525050600182610d7b9190611eda565b91505b600181610d8b9190611f30565b9050610beb565b50505b809250505090565b6000610da76113f4565b73ffffffffffffffffffffffffffffffffffffffff16610dc56108ca565b73ffffffffffffffffffffffffffffffffffffffff1614610e1b576040517f08c379a0000000000000000000000000000000000000000000000000000000008152600401610e1290611da4565b60405180910390fd5b60026001541415610e61576040517f08c379a0000000000000000000000000000000000000000000000000000000008152600401610e5890611e04565b60405180910390fd5b600260018190555060008690506000815111610eb2576040517f08c379a0000000000000000000000000000000000000000000000000000000008152600401610ea990611de4565b60405180910390fd5b610ef16040518060400160405280600981526020017f5f646174653a2025730000000000000000000000000000000000000000000000815250856114e9565b610f3e6040518060400160405280601d81526020017f626c6f636b2e74696d657374616d70202b2031207765656b733a20257300000081525062093a8042610f399190611eda565b6114e9565b62093a8042610f4d9190611eda565b841015610f8f576040517f08c379a0000000000000000000000000000000000000000000000000000000008152600401610f8690611dc4565b60405180910390fd5b600087868686604051602001610fa89493929190611b5f565b604051602081830303815290604052805190602001209050610fc98161025f565b15611009576040517f08c379a000000000000000000000000000000000000000000000000000000000815260040161100090611d84565b60405180910390fd5b60026040518061010001604052808381526020018a81526020018981526020018860ff168152602001878152602001866002811115611071577f4e487b7100000000000000000000000000000000000000000000000000000000600052602160045260246000fd5b8152602001600060038111156110b0577f4e487b7100000000000000000000000000000000000000000000000000000000600052602160045260246000fd5b81526020017fffffffffffffffffffffffffffffffffffffffffffffffffffffffffffffffff60000b815250908060018154018082558091505060019003906000526020600020906006020160009091909190915060008201518160000155602082015181600101908051906020019061112b9291906115ae565b5060408201518160020190805190602001906111489291906115ae565b5060608201518160030160006101000a81548160ff021916908360ff1602179055506080820151816004015560a08201518160050160006101000a81548160ff021916908360028111156111c5577f4e487b7100000000000000000000000000000000000000000000000000000000600052602160045260246000fd5b021790555060c08201518160050160016101000a81548160ff0219169083600381111561121b577f4e487b7100000000000000000000000000000000000000000000000000000000600052602160045260246000fd5b021790555060e08201518160050160026101000a81548160ff021916908360000b60ff16021790555050506000600160028054905061125a9190611f30565b90506001816112699190611eda565b60036000848152602001908152602001600020819055507fd4d61f8dd5ed02077010e5ad6c15383271a2535f03580863eac273b6d6ac1047828a8a8a8a8a60007fffffffffffffffffffffffffffffffffffffffffffffffffffffffffffffffff6040516112de989796959493929190611ca8565b60405180910390a18193505050506001808190555095945050505050565b6113046113f4565b73ffffffffffffffffffffffffffffffffffffffff166113226108ca565b73ffffffffffffffffffffffffffffffffffffffff1614611378576040517f08c379a000000000000000000000000000000000000000000000000000000000815260040161136f90611da4565b60405180910390fd5b600073ffffffffffffffffffffffffffffffffffffffff168173ffffffffffffffffffffffffffffffffffffffff1614156113e8576040517f08c379a00000000000000000000000000000000000000000000000000000000081526004016113df90611d64565b60405180910390fd5b6113f1816113fc565b50565b600033905090565b60008060009054906101000a900473ffffffffffffffffffffffffffffffffffffffff169050816000806101000a81548173ffffffffffffffffffffffffffffffffffffffff021916908373ffffffffffffffffffffffffffffffffffffffff1602179055508173ffffffffffffffffffffffffffffffffffffffff168173ffffffffffffffffffffffffffffffffffffffff167f8be0079c531659141344cd1fd0a4f28419497f9722a3daafe3b4186f6b6457e060405160405180910390a35050565b6000600160036000848152602001908152602001600020546114e29190611f30565b9050919050565b61158182826040516024016114ff929190611d34565b6040516020818303038152906040527f9710a9d0000000000000000000000000000000000000000000000000000000007bffffffffffffffffffffffffffffffffffffffffffffffffffffffff19166020820180517bffffffffffffffffffffffffffffffffffffffffffffffffffffffff8381831617835250505050611585565b5050565b60008151905060006a636f6e736f6c652e6c6f679050602083016000808483855afa5050505050565b8280546115ba9061206e565b90600052602060002090601f0160209004810192826115dc5760008555611623565b82601f106115f557805160ff1916838001178555611623565b82800160010185558215611623579182015b82811115611622578251825591602001919060010190611607565b5b5090506116309190611634565b5090565b5b8082111561164d576000816000905550600101611635565b5090565b600061166461165f84611e49565b611e24565b90508281526020810184848401111561167c57600080fd5b61168784828561202c565b509392505050565b60008135905061169e8161230b565b92915050565b6000813590506116b381612322565b92915050565b6000813590506116c881612339565b92915050565b6000813590506116dd81612350565b92915050565b6000813590506116f281612360565b92915050565b60008135905061170781612370565b92915050565b600082601f83011261171e57600080fd5b813561172e848260208601611651565b91505092915050565b60008135905061174681612387565b92915050565b60008135905061175b8161239e565b92915050565b60006020828403121561177357600080fd5b60006117818482850161168f565b91505092915050565b60006020828403121561179c57600080fd5b60006117aa848285016116a4565b91505092915050565b6000602082840312156117c557600080fd5b60006117d3848285016116b9565b91505092915050565b6000806000606084860312156117f157600080fd5b60006117ff868287016116b9565b9350506020611810868287016116ce565b9250506040611821868287016116f8565b9150509250925092565b600080600080600060a0868803121561184357600080fd5b600086013567ffffffffffffffff81111561185d57600080fd5b6118698882890161170d565b955050602086013567ffffffffffffffff81111561188657600080fd5b6118928882890161170d565b94505060406118a38882890161174c565b93505060606118b488828901611737565b92505060806118c5888289016116e3565b9150509295509295909350565b60006118de8383611966565b60208301905092915050565b6118f381611f64565b82525050565b600061190482611e8a565b61190e8185611ead565b935061191983611e7a565b8060005b8381101561194a57815161193188826118d2565b975061193c83611ea0565b92505060018101905061191d565b5085935050505092915050565b61196081611f76565b82525050565b61196f81611f82565b82525050565b61197e81611f82565b82525050565b61198d81611ff6565b82525050565b61199c81612008565b82525050565b6119b36119ae82612008565b6120db565b82525050565b6119c281611fb2565b82525050565b6119d18161201a565b82525050565b60006119e282611e95565b6119ec8185611ebe565b93506119fc81856020860161203b565b611a05816121a9565b840191505092915050565b6000611a1b82611e95565b611a258185611ecf565b9350611a3581856020860161203b565b80840191505092915050565b6000611a4e602683611ebe565b9150611a59826121c7565b604082019050919050565b6000611a71601483611ebe565b9150611a7c82612216565b602082019050919050565b6000611a94602083611ebe565b9150611a9f8261223f565b602082019050919050565b6000611ab7602083611ebe565b9150611ac282612268565b602082019050919050565b6000611ada601583611ebe565b9150611ae582612291565b602082019050919050565b6000611afd601f83611ebe565b9150611b08826122ba565b602082019050919050565b611b1c81611fdf565b82525050565b611b33611b2e82611fdf565b6120d1565b82525050565b611b4281611fe9565b82525050565b611b59611b5482611fe9565b6120db565b82525050565b6000611b6b8287611a10565b9150611b778286611b48565b600182019150611b878285611b22565b602082019150611b9782846119a2565b60018201915081905095945050505050565b6000602082019050611bbe60008301846118ea565b92915050565b60006020820190508181036000830152611bde81846118f9565b905092915050565b6000602082019050611bfb6000830184611957565b92915050565b6000602082019050611c166000830184611975565b92915050565b600061010082019050611c32600083018b611975565b8181036020830152611c44818a6119d7565b90508181036040830152611c5881896119d7565b9050611c676060830188611b39565b611c746080830187611b13565b611c8160a0830186611993565b611c8e60c0830185611984565b611c9b60e08301846119b9565b9998505050505050505050565b600061010082019050611cbe600083018b611975565b8181036020830152611cd0818a6119d7565b90508181036040830152611ce481896119d7565b9050611cf36060830188611b39565b611d006080830187611b13565b611d0d60a0830186611993565b611d1a60c0830185611984565b611d2760e08301846119c8565b9998505050505050505050565b60006040820190508181036000830152611d4e81856119d7565b9050611d5d6020830184611b13565b9392505050565b60006020820190508181036000830152611d7d81611a41565b9050919050565b60006020820190508181036000830152611d9d81611a64565b9050919050565b60006020820190508181036000830152611dbd81611a87565b9050919050565b60006020820190508181036000830152611ddd81611aaa565b9050919050565b60006020820190508181036000830152611dfd81611acd565b9050919050565b60006020820190508181036000830152611e1d81611af0565b9050919050565b6000611e2e611e3f565b9050611e3a82826120a0565b919050565b6000604051905090565b600067ffffffffffffffff821115611e6457611e6361217a565b5b611e6d826121a9565b9050602081019050919050565b6000819050602082019050919050565b600081519050919050565b600081519050919050565b6000602082019050919050565b600082825260208201905092915050565b600082825260208201905092915050565b600081905092915050565b6000611ee582611fdf565b9150611ef083611fdf565b9250827fffffffffffffffffffffffffffffffffffffffffffffffffffffffffffffffff03821115611f2557611f246120ed565b5b828201905092915050565b6000611f3b82611fdf565b9150611f4683611fdf565b925082821015611f5957611f586120ed565b5b828203905092915050565b6000611f6f82611fbf565b9050919050565b60008115159050919050565b6000819050919050565b6000819050611f9a826122e3565b919050565b6000819050611fad826122f7565b919050565b60008160000b9050919050565b600073ffffffffffffffffffffffffffffffffffffffff82169050919050565b6000819050919050565b600060ff82169050919050565b600061200182611f8c565b9050919050565b600061201382611f9f565b9050919050565b600061202582611fb2565b9050919050565b82818337600083830152505050565b60005b8381101561205957808201518184015260208101905061203e565b83811115612068576000848401525b50505050565b6000600282049050600182168061208657607f821691505b6020821081141561209a5761209961214b565b5b50919050565b6120a9826121a9565b810181811067ffffffffffffffff821117156120c8576120c761217a565b5b80604052505050565b6000819050919050565b60006120e6826121ba565b9050919050565b7f4e487b7100000000000000000000000000000000000000000000000000000000600052601160045260246000fd5b7f4e487b7100000000000000000000000000000000000000000000000000000000600052602160045260246000fd5b7f4e487b7100000000000000000000000000000000000000000000000000000000600052602260045260246000fd5b7f4e487b7100000000000000000000000000000000000000000000000000000000600052604160045260246000fd5b6000601f19601f8301169050919050565b60008160f81b9050919050565b7f4f776e61626c653a206e6577206f776e657220697320746865207a65726f206160008201527f6464726573730000000000000000000000000000000000000000000000000000602082015250565b7f4576656e7420616c726561647920657869737473000000000000000000000000600082015250565b7f4f776e61626c653a2063616c6c6572206973206e6f7420746865206f776e6572600082015250565b7f5f64617465206d757374206265203e3d2031207765656b2066726f6d206e6f77600082015250565b7f5f6e616d652063616e6e6f7420626520656d7074790000000000000000000000600082015250565b7f5265656e7472616e637947756172643a207265656e7472616e742063616c6c00600082015250565b600481106122f4576122f361211c565b5b50565b600381106123085761230761211c565b5b50565b61231481611f64565b811461231f57600080fd5b50565b61232b81611f76565b811461233657600080fd5b50565b61234281611f82565b811461234d57600080fd5b50565b6004811061235d57600080fd5b50565b6003811061236d57600080fd5b50565b61237981611fb2565b811461238457600080fd5b50565b61239081611fdf565b811461239b57600080fd5b50565b6123a781611fe9565b81146123b257600080fd5b5056fea2646970667358221220d20df4b6f3991fb9b95d9813499301e23a0f0b1876ab62031aeca947db58fea864736f6c63430008040033",
  "devdoc": {
    "events": {
      "SportEventAdded(bytes32,string,string,uint8,uint256,uint8,uint8,int8)": {
        "details": "Triggered once an event has been added"
      }
    },
    "kind": "dev",
    "methods": {
      "addSportEvent(string,string,uint8,uint256,uint8)": {
        "params": {
          "_date": "date set for the sport event",
          "_kind": "kind of the sport (e.g. soccer/rugby/basketball)",
          "_name": "descriptive name for the sport event (e.g. Pac vs. Mayweather 2016)",
          "_participantCount": "number of participants",
          "_participants": "|-delimited string of participants names (e.g. \"Montpellier|Monaco\")"
        },
        "returns": {
          "_0": "the unique id of the newly created sport event"
        }
      },
      "declareOutcome(bytes32,uint8,int8)": {
        "params": {
          "_eventId": "unique id of the match to modify",
          "_outcome": "outcome of the match",
          "_winner": "0-based id of the winnner"
        }
      },
      "eventExists(bytes32)": {
        "params": {
          "_eventId": "the id of a sport event id"
        },
        "returns": {
          "_0": "true if sport event exists and its id is valid"
        }
      },
      "getAddress()": {
        "returns": {
          "_0": "the address of the BetOracle smart-contract"
        }
      },
      "getAllSportEvents()": {
        "returns": {
          "_0": "an array of unique match ids"
        }
      },
      "getEvent(bytes32)": {
        "params": {
          "_eventId": "the unique id of the desired event"
        },
        "returns": {
          "date": "when the event takes place",
          "id": "  the id of the event",
          "kind": "what is sport kind",
          "name": "the name of the event",
          "outcome": "an integer that represents the event outcome",
          "participantCount": "the number of the event's participants",
          "participants": "a string with the name of the event's participants separated with a pipe symbol ('|')",
          "winner": "the index of the winner"
        }
      },
      "getLatestEvent(bool)": {
        "params": {
          "_pending": "if true, returns only the most recent pending sport event;   otherwise, returns the most recent sport event either pending or completed"
        },
        "returns": {
          "date": "when the event takes place",
          "id": "  the id of the event",
          "kind": "what is sport kind",
          "name": "the name of the event",
          "outcome": "an integer that represents the event outcome",
          "participantCount": "the number of the event's participants",
          "participants": "a string with the name of the event's participants separated with a pipe symbol ('|')",
          "winner": "the index of the winner"
        }
      },
      "getPendingEvents()": {
        "returns": {
          "_0": "an array of unique pending events ids"
        }
      },
      "owner()": {
        "details": "Returns the address of the current owner."
      },
      "renounceOwnership()": {
        "details": "Leaves the contract without owner. It will not be possible to call `onlyOwner` functions anymore. Can only be called by the current owner. NOTE: Renouncing ownership will leave the contract without an owner, thereby removing any functionality that is only available to the owner."
      },
      "testConnection()": {
        "returns": {
          "_0": "true, unconditionally"
        }
      },
      "transferOwnership(address)": {
        "details": "Transfers ownership of the contract to a new account (`newOwner`). Can only be called by the current owner."
      }
    },
    "stateVariables": {
      "events": {
        "details": "all the sport events"
      }
    },
    "title": "An smart-contract Oracle that register sport events, retrieve their outcomes and communicate their results when asked for.",
    "version": 1
  },
  "userdoc": {
    "kind": "user",
    "methods": {
      "addSportEvent(string,string,uint8,uint256,uint8)": {
        "notice": "Add a new pending sport event into the blockchain"
      },
      "declareOutcome(bytes32,uint8,int8)": {
        "notice": "Sets the outcome of a predefined match, permanently on the blockchain"
      },
      "eventExists(bytes32)": {
        "notice": "Determines whether a sport event exists with the given id"
      },
      "getAddress()": {
        "notice": "gets the address of this contract"
      },
      "getAllSportEvents()": {
        "notice": "gets the unique ids of events, pending and decided, in reverse chronological order"
      },
      "getEvent(bytes32)": {
        "notice": "gets the specified sport event and return its data"
      },
      "getLatestEvent(bool)": {
        "notice": "return the data of the most recent sport event"
      },
      "getPendingEvents()": {
        "notice": "gets the unique ids of all pending events, in reverse chronological order"
      },
      "testConnection()": {
        "notice": "can be used by a client contract to ensure that they've connected to this contract interface successfully"
      }
    },
    "notice": "Collects and provides information on sport events and their outcomes",
    "version": 1
  },
  "storageLayout": {
    "storage": [
      {
        "astId": 7,
        "contract": "contracts/BetOracle.sol:BetOracle",
        "label": "_owner",
        "offset": 0,
        "slot": "0",
        "type": "t_address"
      },
      {
        "astId": 114,
        "contract": "contracts/BetOracle.sol:BetOracle",
        "label": "_status",
        "offset": 0,
        "slot": "1",
        "type": "t_uint256"
      },
      {
        "astId": 183,
        "contract": "contracts/BetOracle.sol:BetOracle",
        "label": "events",
        "offset": 0,
        "slot": "2",
        "type": "t_array(t_struct(SportEvent)206_storage)dyn_storage"
      },
      {
        "astId": 187,
        "contract": "contracts/BetOracle.sol:BetOracle",
        "label": "eventIdToIndex",
        "offset": 0,
        "slot": "3",
        "type": "t_mapping(t_bytes32,t_uint256)"
      }
    ],
    "types": {
      "t_address": {
        "encoding": "inplace",
        "label": "address",
        "numberOfBytes": "20"
      },
      "t_array(t_struct(SportEvent)206_storage)dyn_storage": {
        "base": "t_struct(SportEvent)206_storage",
        "encoding": "dynamic_array",
        "label": "struct BetOracle.SportEvent[]",
        "numberOfBytes": "32"
      },
      "t_bytes32": {
        "encoding": "inplace",
        "label": "bytes32",
        "numberOfBytes": "32"
      },
      "t_enum(EventOutcome)813": {
        "encoding": "inplace",
        "label": "enum OracleInterface.EventOutcome",
        "numberOfBytes": "1"
      },
      "t_enum(SportKind)817": {
        "encoding": "inplace",
        "label": "enum OracleInterface.SportKind",
        "numberOfBytes": "1"
      },
      "t_int8": {
        "encoding": "inplace",
        "label": "int8",
        "numberOfBytes": "1"
      },
      "t_mapping(t_bytes32,t_uint256)": {
        "encoding": "mapping",
        "key": "t_bytes32",
        "label": "mapping(bytes32 => uint256)",
        "numberOfBytes": "32",
        "value": "t_uint256"
      },
      "t_string_storage": {
        "encoding": "bytes",
        "label": "string",
        "numberOfBytes": "32"
      },
      "t_struct(SportEvent)206_storage": {
        "encoding": "inplace",
        "label": "struct BetOracle.SportEvent",
        "members": [
          {
            "astId": 189,
            "contract": "contracts/BetOracle.sol:BetOracle",
            "label": "id",
            "offset": 0,
            "slot": "0",
            "type": "t_bytes32"
          },
          {
            "astId": 191,
            "contract": "contracts/BetOracle.sol:BetOracle",
            "label": "name",
            "offset": 0,
            "slot": "1",
            "type": "t_string_storage"
          },
          {
            "astId": 193,
            "contract": "contracts/BetOracle.sol:BetOracle",
            "label": "participants",
            "offset": 0,
            "slot": "2",
            "type": "t_string_storage"
          },
          {
            "astId": 195,
            "contract": "contracts/BetOracle.sol:BetOracle",
            "label": "participantCount",
            "offset": 0,
            "slot": "3",
            "type": "t_uint8"
          },
          {
            "astId": 197,
            "contract": "contracts/BetOracle.sol:BetOracle",
            "label": "date",
            "offset": 0,
            "slot": "4",
            "type": "t_uint256"
          },
          {
            "astId": 200,
            "contract": "contracts/BetOracle.sol:BetOracle",
            "label": "kind",
            "offset": 0,
            "slot": "5",
            "type": "t_enum(SportKind)817"
          },
          {
            "astId": 203,
            "contract": "contracts/BetOracle.sol:BetOracle",
            "label": "outcome",
            "offset": 1,
            "slot": "5",
            "type": "t_enum(EventOutcome)813"
          },
          {
            "astId": 205,
            "contract": "contracts/BetOracle.sol:BetOracle",
            "label": "winner",
            "offset": 2,
            "slot": "5",
            "type": "t_int8"
          }
        ],
        "numberOfBytes": "192"
      },
      "t_uint256": {
        "encoding": "inplace",
        "label": "uint256",
        "numberOfBytes": "32"
      },
      "t_uint8": {
        "encoding": "inplace",
        "label": "uint8",
        "numberOfBytes": "1"
      }
    }
  }
}