{
  "_format": "hh-sol-artifact-1",
  "contractName": "BetOracle",
  "sourceName": "contracts/BetOracle.sol",
  "abi": [
    {
      "anonymous": false,
      "inputs": [
        {
          "indexed": true,
          "internalType": "address",
          "name": "previousOwner",
          "type": "address"
        },
        {
          "indexed": true,
          "internalType": "address",
          "name": "newOwner",
          "type": "address"
        }
      ],
      "name": "OwnershipTransferred",
      "type": "event"
    },
    {
      "anonymous": false,
      "inputs": [
        {
          "indexed": false,
          "internalType": "bytes32",
          "name": "_eventId",
          "type": "bytes32"
        },
        {
          "indexed": false,
          "internalType": "string",
          "name": "_name",
          "type": "string"
        },
        {
          "indexed": false,
          "internalType": "string",
          "name": "_participants",
          "type": "string"
        },
        {
          "indexed": false,
          "internalType": "uint8",
          "name": "_participantCount",
          "type": "uint8"
        },
        {
          "indexed": false,
          "internalType": "uint256",
          "name": "_date",
          "type": "uint256"
        },
        {
          "indexed": false,
          "internalType": "enum OracleInterface.EventOutcome",
          "name": "_eventOutcome",
          "type": "uint8"
        },
        {
          "indexed": false,
          "internalType": "int8",
          "name": "_winner",
          "type": "int8"
        }
      ],
      "name": "SportEventAdded",
      "type": "event"
    },
    {
      "inputs": [
        {
          "internalType": "string",
          "name": "_name",
          "type": "string"
        },
        {
          "internalType": "string",
          "name": "_participants",
          "type": "string"
        },
        {
          "internalType": "uint8",
          "name": "_participantCount",
          "type": "uint8"
        },
        {
          "internalType": "uint256",
          "name": "_date",
          "type": "uint256"
        }
      ],
      "name": "addSportEvent",
      "outputs": [
        {
          "internalType": "bytes32",
          "name": "",
          "type": "bytes32"
        }
      ],
      "stateMutability": "nonpayable",
      "type": "function"
    },
    {
      "inputs": [
        {
          "internalType": "bytes32",
          "name": "_eventId",
          "type": "bytes32"
        },
        {
          "internalType": "enum OracleInterface.EventOutcome",
          "name": "_outcome",
          "type": "uint8"
        },
        {
          "internalType": "int8",
          "name": "_winner",
          "type": "int8"
        }
      ],
      "name": "declareOutcome",
      "outputs": [],
      "stateMutability": "nonpayable",
      "type": "function"
    },
    {
      "inputs": [
        {
          "internalType": "bytes32",
          "name": "_eventId",
          "type": "bytes32"
        }
      ],
      "name": "eventExists",
      "outputs": [
        {
          "internalType": "bool",
          "name": "",
          "type": "bool"
        }
      ],
      "stateMutability": "view",
      "type": "function"
    },
    {
      "inputs": [],
      "name": "getAddress",
      "outputs": [
        {
          "internalType": "address",
          "name": "",
          "type": "address"
        }
      ],
      "stateMutability": "view",
      "type": "function"
    },
    {
      "inputs": [],
      "name": "getAllSportEvents",
      "outputs": [
        {
          "internalType": "bytes32[]",
          "name": "",
          "type": "bytes32[]"
        }
      ],
      "stateMutability": "view",
      "type": "function"
    },
    {
      "inputs": [
        {
          "internalType": "bytes32",
          "name": "_eventId",
          "type": "bytes32"
        }
      ],
      "name": "getEvent",
      "outputs": [
        {
          "internalType": "bytes32",
          "name": "id",
          "type": "bytes32"
        },
        {
          "internalType": "string",
          "name": "name",
          "type": "string"
        },
        {
          "internalType": "string",
          "name": "participants",
          "type": "string"
        },
        {
          "internalType": "uint8",
          "name": "participantCount",
          "type": "uint8"
        },
        {
          "internalType": "uint256",
          "name": "date",
          "type": "uint256"
        },
        {
          "internalType": "enum OracleInterface.EventOutcome",
          "name": "outcome",
          "type": "uint8"
        },
        {
          "internalType": "int8",
          "name": "winner",
          "type": "int8"
        }
      ],
      "stateMutability": "view",
      "type": "function"
    },
    {
      "inputs": [
        {
          "internalType": "bool",
          "name": "_pending",
          "type": "bool"
        }
      ],
      "name": "getLatestEvent",
      "outputs": [
        {
          "internalType": "bytes32",
          "name": "id",
          "type": "bytes32"
        },
        {
          "internalType": "string",
          "name": "name",
          "type": "string"
        },
        {
          "internalType": "string",
          "name": "participants",
          "type": "string"
        },
        {
          "internalType": "uint8",
          "name": "participantCount",
          "type": "uint8"
        },
        {
          "internalType": "uint256",
          "name": "date",
          "type": "uint256"
        },
        {
          "internalType": "enum OracleInterface.EventOutcome",
          "name": "outcome",
          "type": "uint8"
        },
        {
          "internalType": "int8",
          "name": "winner",
          "type": "int8"
        }
      ],
      "stateMutability": "view",
      "type": "function"
    },
    {
      "inputs": [],
      "name": "getPendingEvents",
      "outputs": [
        {
          "internalType": "bytes32[]",
          "name": "",
          "type": "bytes32[]"
        }
      ],
      "stateMutability": "view",
      "type": "function"
    },
    {
      "inputs": [],
      "name": "owner",
      "outputs": [
        {
          "internalType": "address",
          "name": "",
          "type": "address"
        }
      ],
      "stateMutability": "view",
      "type": "function"
    },
    {
      "inputs": [],
      "name": "renounceOwnership",
      "outputs": [],
      "stateMutability": "nonpayable",
      "type": "function"
    },
    {
      "inputs": [],
      "name": "testConnection",
      "outputs": [
        {
          "internalType": "bool",
          "name": "",
          "type": "bool"
        }
      ],
      "stateMutability": "pure",
      "type": "function"
    },
    {
      "inputs": [
        {
          "internalType": "address",
          "name": "newOwner",
          "type": "address"
        }
      ],
      "name": "transferOwnership",
      "outputs": [],
      "stateMutability": "nonpayable",
      "type": "function"
    }
  ],
  "bytecode": "0x608060405234801561001057600080fd5b5061002d61002261003960201b60201c565b61004160201b60201c565b60018081905550610105565b600033905090565b60008060009054906101000a900473ffffffffffffffffffffffffffffffffffffffff169050816000806101000a81548173ffffffffffffffffffffffffffffffffffffffff021916908373ffffffffffffffffffffffffffffffffffffffff1602179055508173ffffffffffffffffffffffffffffffffffffffff168173ffffffffffffffffffffffffffffffffffffffff167f8be0079c531659141344cd1fd0a4f28419497f9722a3daafe3b4186f6b6457e060405160405180910390a35050565b6120e980620001156000396000f3fe608060405234801561001057600080fd5b50600436106100b45760003560e01c8063895f490f11610071578063895f490f146101815780638c172fa2146101b15780638da5cb5b146101e7578063a717e89a14610205578063b4184e7014610223578063f2fde38b14610241576100b4565b8063118e58bd146100b957806329e54269146100e95780633412a15c1461011f57806338cc48311461013d578063715018a61461015b5780637898d33414610165575b600080fd5b6100d360048036038101906100ce9190611593565b61025d565b6040516100e0919061197b565b60405180910390f35b61010360048036038101906100fe919061156a565b61029a565b60405161011697969594939291906119b1565b60405180910390f35b610127610342565b604051610134919061197b565b60405180910390f35b61014561034b565b604051610152919061193e565b60405180910390f35b610163610353565b005b61017f600480360381019061017a91906115bc565b6103db565b005b61019b6004803603810190610196919061160b565b610660565b6040516101a89190611996565b60405180910390f35b6101cb60048036038101906101c69190611593565b610a99565b6040516101de97969594939291906119b1565b60405180910390f35b6101ef610ce3565b6040516101fc919061193e565b60405180910390f35b61020d610d0c565b60405161021a9190611959565b60405180910390f35b61022b610e73565b6040516102389190611959565b60405180910390f35b61025b60048036038101906102569190611541565b6111b6565b005b60008060028054905014156102755760009050610295565b600060036000848152602001908152602001600020549050600081119150505b919050565b600060608060008060008060008060001b9050606089156102c4576102bd610e73565b90506102cf565b6102cc610d0c565b90505b60008151111561031e5780600081518110610313577f4e487b7100000000000000000000000000000000000000000000000000000000600052603260045260246000fd5b602002602001015191505b61032782610a99565b98509850985098509850985098505050919395979092949650565b60006001905090565b600030905090565b61035b6112ae565b73ffffffffffffffffffffffffffffffffffffffff16610379610ce3565b73ffffffffffffffffffffffffffffffffffffffff16146103cf576040517f08c379a00000000000000000000000000000000000000000000000000000000081526004016103c690611aeb565b60405180910390fd5b6103d960006112b6565b565b6103e36112ae565b73ffffffffffffffffffffffffffffffffffffffff16610401610ce3565b73ffffffffffffffffffffffffffffffffffffffff1614610457576040517f08c379a000000000000000000000000000000000000000000000000000000000815260040161044e90611aeb565b60405180910390fd5b6104608361025d565b61046957600080fd5b60006104748461137a565b90506000600282815481106104b2577f4e487b7100000000000000000000000000000000000000000000000000000000600052603260045260246000fd5b906000526020600020906006020190506003808111156104fb577f4e487b7100000000000000000000000000000000000000000000000000000000600052602160045260246000fd5b846003811115610534577f4e487b7100000000000000000000000000000000000000000000000000000000600052602160045260246000fd5b141561056e5760008360000b1215801561056457508260ff168160030160009054906101000a900460ff1660ff16115b61056d57600080fd5b5b838160050160006101000a81548160ff021916908360038111156105bb577f4e487b7100000000000000000000000000000000000000000000000000000000600052602160045260246000fd5b02179055506003808111156105f9577f4e487b7100000000000000000000000000000000000000000000000000000000600052602160045260246000fd5b846003811115610632577f4e487b7100000000000000000000000000000000000000000000000000000000600052602160045260246000fd5b141561065957828160050160016101000a81548160ff021916908360000b60ff1602179055505b5050505050565b600061066a6112ae565b73ffffffffffffffffffffffffffffffffffffffff16610688610ce3565b73ffffffffffffffffffffffffffffffffffffffff16146106de576040517f08c379a00000000000000000000000000000000000000000000000000000000081526004016106d590611aeb565b60405180910390fd5b60026001541415610724576040517f08c379a000000000000000000000000000000000000000000000000000000000815260040161071b90611b4b565b60405180910390fd5b600260018190555060008590506000815111610775576040517f08c379a000000000000000000000000000000000000000000000000000000000815260040161076c90611b2b565b60405180910390fd5b62093a80426107849190611c21565b8310156107c6576040517f08c379a00000000000000000000000000000000000000000000000000000000081526004016107bd90611b0b565b60405180910390fd5b60008685856040516020016107dd93929190611905565b6040516020818303038152906040528051906020012090506107fe8161025d565b1561083e576040517f08c379a000000000000000000000000000000000000000000000000000000000815260040161083590611acb565b60405180910390fd5b60026040518060e001604052808381526020018981526020018881526020018760ff168152602001868152602001600060038111156108a6577f4e487b7100000000000000000000000000000000000000000000000000000000600052602160045260246000fd5b81526020017fffffffffffffffffffffffffffffffffffffffffffffffffffffffffffffffff60000b81525090806001815401808255809150506001900390600052602060002090600602016000909190919091506000820151816000015560208201518160010190805190602001906109219291906113a3565b50604082015181600201908051906020019061093e9291906113a3565b5060608201518160030160006101000a81548160ff021916908360ff1602179055506080820151816004015560a08201518160050160006101000a81548160ff021916908360038111156109bb577f4e487b7100000000000000000000000000000000000000000000000000000000600052602160045260246000fd5b021790555060c08201518160050160016101000a81548160ff021916908360000b60ff1602179055505050600060016002805490506109fa9190611c77565b9050600181610a099190611c21565b60036000848152602001908152602001600020819055507ff104b333d7adacd62c09966b46fcf5181fec631a91f176e3d9d72db88c109511828989898960007fffffffffffffffffffffffffffffffffffffffffffffffffffffffffffffffff604051610a7c9796959493929190611a2e565b60405180910390a181935050505060018081905550949350505050565b6000606080600080600080610aad8861025d565b15610c7a5760006002610abf8a61137a565b81548110610af6577f4e487b7100000000000000000000000000000000000000000000000000000000600052603260045260246000fd5b90600052602060002090600602019050806000015481600101826002018360030160009054906101000a900460ff1684600401548560050160009054906101000a900460ff168660050160019054906101000a900460000b858054610b5a90611d90565b80601f0160208091040260200160405190810160405280929190818152602001828054610b8690611d90565b8015610bd35780601f10610ba857610100808354040283529160200191610bd3565b820191906000526020600020905b815481529060010190602001808311610bb657829003601f168201915b50505050509550848054610be690611d90565b80601f0160208091040260200160405190810160405280929190818152602001828054610c1290611d90565b8015610c5f5780601f10610c3457610100808354040283529160200191610c5f565b820191906000526020600020905b815481529060010190602001808311610c4257829003601f168201915b50505050509450975097509750975097509750975050610cd8565b8760008060007fffffffffffffffffffffffffffffffffffffffffffffffffffffffffffffffff6040518060200160405280600081525093929190604051806020016040528060008152509392919096509650965096509650965096505b919395979092949650565b60008060009054906101000a900473ffffffffffffffffffffffffffffffffffffffff16905090565b6060600060028054905067ffffffffffffffff811115610d55577f4e487b7100000000000000000000000000000000000000000000000000000000600052604160045260246000fd5b604051908082528060200260200182016040528015610d835781602001602082028036833780820191505090505b50905060006002805490501115610e6c5760008060028054905090505b6000811115610e69576002600182610db89190611c77565b81548110610def577f4e487b7100000000000000000000000000000000000000000000000000000000600052603260045260246000fd5b90600052602060002090600602016000015483600184610e0f9190611c21565b93508381518110610e49577f4e487b7100000000000000000000000000000000000000000000000000000000600052603260045260246000fd5b602002602001018181525050600181610e629190611c77565b9050610da0565b50505b8091505090565b60606000805b600280549050811015610f7b5760006003811115610ec0577f4e487b7100000000000000000000000000000000000000000000000000000000600052602160045260246000fd5b60028281548110610efa577f4e487b7100000000000000000000000000000000000000000000000000000000600052603260045260246000fd5b906000526020600020906006020160050160009054906101000a900460ff166003811115610f51577f4e487b7100000000000000000000000000000000000000000000000000000000600052602160045260246000fd5b1415610f6757600182610f649190611c21565b91505b600181610f749190611c21565b9050610e79565b5060008167ffffffffffffffff811115610fbe577f4e487b7100000000000000000000000000000000000000000000000000000000600052604160045260246000fd5b604051908082528060200260200182016040528015610fec5781602001602082028036833780820191505090505b50905060008211156111ae5760008060028054905090505b60008111156111ab5760006003811115611047577f4e487b7100000000000000000000000000000000000000000000000000000000600052602160045260246000fd5b60026001836110569190611c77565b8154811061108d577f4e487b7100000000000000000000000000000000000000000000000000000000600052603260045260246000fd5b906000526020600020906006020160050160009054906101000a900460ff1660038111156110e4577f4e487b7100000000000000000000000000000000000000000000000000000000600052602160045260246000fd5b14156111975760026001826110f99190611c77565b81548110611130577f4e487b7100000000000000000000000000000000000000000000000000000000600052603260045260246000fd5b90600052602060002090600602016000015483838151811061117b577f4e487b7100000000000000000000000000000000000000000000000000000000600052603260045260246000fd5b6020026020010181815250506001826111949190611c21565b91505b6001816111a49190611c77565b9050611004565b50505b809250505090565b6111be6112ae565b73ffffffffffffffffffffffffffffffffffffffff166111dc610ce3565b73ffffffffffffffffffffffffffffffffffffffff1614611232576040517f08c379a000000000000000000000000000000000000000000000000000000000815260040161122990611aeb565b60405180910390fd5b600073ffffffffffffffffffffffffffffffffffffffff168173ffffffffffffffffffffffffffffffffffffffff1614156112a2576040517f08c379a000000000000000000000000000000000000000000000000000000000815260040161129990611aab565b60405180910390fd5b6112ab816112b6565b50565b600033905090565b60008060009054906101000a900473ffffffffffffffffffffffffffffffffffffffff169050816000806101000a81548173ffffffffffffffffffffffffffffffffffffffff021916908373ffffffffffffffffffffffffffffffffffffffff1602179055508173ffffffffffffffffffffffffffffffffffffffff168173ffffffffffffffffffffffffffffffffffffffff167f8be0079c531659141344cd1fd0a4f28419497f9722a3daafe3b4186f6b6457e060405160405180910390a35050565b60006001600360008481526020019081526020016000205461139c9190611c77565b9050919050565b8280546113af90611d90565b90600052602060002090601f0160209004810192826113d15760008555611418565b82601f106113ea57805160ff1916838001178555611418565b82800160010185558215611418579182015b828111156114175782518255916020019190600101906113fc565b5b5090506114259190611429565b5090565b5b8082111561144257600081600090555060010161142a565b5090565b600061145961145484611b90565b611b6b565b90508281526020810184848401111561147157600080fd5b61147c848285611d4e565b509392505050565b60008135905061149381612019565b92915050565b6000813590506114a881612030565b92915050565b6000813590506114bd81612047565b92915050565b6000813590506114d28161205e565b92915050565b6000813590506114e78161206e565b92915050565b600082601f8301126114fe57600080fd5b813561150e848260208601611446565b91505092915050565b60008135905061152681612085565b92915050565b60008135905061153b8161209c565b92915050565b60006020828403121561155357600080fd5b600061156184828501611484565b91505092915050565b60006020828403121561157c57600080fd5b600061158a84828501611499565b91505092915050565b6000602082840312156115a557600080fd5b60006115b3848285016114ae565b91505092915050565b6000806000606084860312156115d157600080fd5b60006115df868287016114ae565b93505060206115f0868287016114c3565b9250506040611601868287016114d8565b9150509250925092565b6000806000806080858703121561162157600080fd5b600085013567ffffffffffffffff81111561163b57600080fd5b611647878288016114ed565b945050602085013567ffffffffffffffff81111561166457600080fd5b611670878288016114ed565b93505060406116818782880161152c565b925050606061169287828801611517565b91505092959194509250565b60006116aa8383611732565b60208301905092915050565b6116bf81611cab565b82525050565b60006116d082611bd1565b6116da8185611bf4565b93506116e583611bc1565b8060005b838110156117165781516116fd888261169e565b975061170883611be7565b9250506001810190506116e9565b5085935050505092915050565b61172c81611cbd565b82525050565b61173b81611cc9565b82525050565b61174a81611cc9565b82525050565b61175981611d2a565b82525050565b61176881611ce6565b82525050565b61177781611d3c565b82525050565b600061178882611bdc565b6117928185611c05565b93506117a2818560208601611d5d565b6117ab81611ecb565b840191505092915050565b60006117c182611bdc565b6117cb8185611c16565b93506117db818560208601611d5d565b80840191505092915050565b60006117f4602683611c05565b91506117ff82611ee9565b604082019050919050565b6000611817601483611c05565b915061182282611f38565b602082019050919050565b600061183a602083611c05565b915061184582611f61565b602082019050919050565b600061185d602083611c05565b915061186882611f8a565b602082019050919050565b6000611880601583611c05565b915061188b82611fb3565b602082019050919050565b60006118a3601f83611c05565b91506118ae82611fdc565b602082019050919050565b6118c281611d13565b82525050565b6118d96118d482611d13565b611df3565b82525050565b6118e881611d1d565b82525050565b6118ff6118fa82611d1d565b611dfd565b82525050565b600061191182866117b6565b915061191d82856118ee565b60018201915061192d82846118c8565b602082019150819050949350505050565b600060208201905061195360008301846116b6565b92915050565b6000602082019050818103600083015261197381846116c5565b905092915050565b60006020820190506119906000830184611723565b92915050565b60006020820190506119ab6000830184611741565b92915050565b600060e0820190506119c6600083018a611741565b81810360208301526119d8818961177d565b905081810360408301526119ec818861177d565b90506119fb60608301876118df565b611a0860808301866118b9565b611a1560a0830185611750565b611a2260c083018461175f565b98975050505050505050565b600060e082019050611a43600083018a611741565b8181036020830152611a55818961177d565b90508181036040830152611a69818861177d565b9050611a7860608301876118df565b611a8560808301866118b9565b611a9260a0830185611750565b611a9f60c083018461176e565b98975050505050505050565b60006020820190508181036000830152611ac4816117e7565b9050919050565b60006020820190508181036000830152611ae48161180a565b9050919050565b60006020820190508181036000830152611b048161182d565b9050919050565b60006020820190508181036000830152611b2481611850565b9050919050565b60006020820190508181036000830152611b4481611873565b9050919050565b60006020820190508181036000830152611b6481611896565b9050919050565b6000611b75611b86565b9050611b818282611dc2565b919050565b6000604051905090565b600067ffffffffffffffff821115611bab57611baa611e9c565b5b611bb482611ecb565b9050602081019050919050565b6000819050602082019050919050565b600081519050919050565b600081519050919050565b6000602082019050919050565b600082825260208201905092915050565b600082825260208201905092915050565b600081905092915050565b6000611c2c82611d13565b9150611c3783611d13565b9250827fffffffffffffffffffffffffffffffffffffffffffffffffffffffffffffffff03821115611c6c57611c6b611e0f565b5b828201905092915050565b6000611c8282611d13565b9150611c8d83611d13565b925082821015611ca057611c9f611e0f565b5b828203905092915050565b6000611cb682611cf3565b9050919050565b60008115159050919050565b6000819050919050565b6000819050611ce182612005565b919050565b60008160000b9050919050565b600073ffffffffffffffffffffffffffffffffffffffff82169050919050565b6000819050919050565b600060ff82169050919050565b6000611d3582611cd3565b9050919050565b6000611d4782611ce6565b9050919050565b82818337600083830152505050565b60005b83811015611d7b578082015181840152602081019050611d60565b83811115611d8a576000848401525b50505050565b60006002820490506001821680611da857607f821691505b60208210811415611dbc57611dbb611e6d565b5b50919050565b611dcb82611ecb565b810181811067ffffffffffffffff82111715611dea57611de9611e9c565b5b80604052505050565b6000819050919050565b6000611e0882611edc565b9050919050565b7f4e487b7100000000000000000000000000000000000000000000000000000000600052601160045260246000fd5b7f4e487b7100000000000000000000000000000000000000000000000000000000600052602160045260246000fd5b7f4e487b7100000000000000000000000000000000000000000000000000000000600052602260045260246000fd5b7f4e487b7100000000000000000000000000000000000000000000000000000000600052604160045260246000fd5b6000601f19601f8301169050919050565b60008160f81b9050919050565b7f4f776e61626c653a206e6577206f776e657220697320746865207a65726f206160008201527f6464726573730000000000000000000000000000000000000000000000000000602082015250565b7f4576656e7420616c726561647920657869737473000000000000000000000000600082015250565b7f4f776e61626c653a2063616c6c6572206973206e6f7420746865206f776e6572600082015250565b7f5f64617465206d757374206265203e3d2031207765656b2066726f6d206e6f77600082015250565b7f5f6e616d652063616e6e6f7420626520656d7074790000000000000000000000600082015250565b7f5265656e7472616e637947756172643a207265656e7472616e742063616c6c00600082015250565b6004811061201657612015611e3e565b5b50565b61202281611cab565b811461202d57600080fd5b50565b61203981611cbd565b811461204457600080fd5b50565b61205081611cc9565b811461205b57600080fd5b50565b6004811061206b57600080fd5b50565b61207781611ce6565b811461208257600080fd5b50565b61208e81611d13565b811461209957600080fd5b50565b6120a581611d1d565b81146120b057600080fd5b5056fea26469706673582212207000211a6a0058a0757c04d6dd4506aa3a3ce99e8145873d0722445948c183be64736f6c63430008040033",
  "linkReferences": {},
  "deployedLinkReferences": {}
}